{
  "transactions": [
    {
      "hash": "0xddfed3c5f89f4eab0731d31da059b5b00d9867e2fa9618478c066340d9f52c8a",
      "transactionType": "CALL",
      "contractName": null,
      "contractAddress": "0x038280670ff7473f0a3956d0303dc4022dcd140e",
      "function": "setUsername(string)",
      "arguments": [
        "player123"
      ],
      "transaction": {
        "from": "0x5f19d599135fb480d504d6a8a46ad17edd56559b",
        "to": "0x038280670ff7473f0a3956d0303dc4022dcd140e",
        "gas": "0x29014",
        "value": "0x0",
        "input": "0xed59313a00000000000000000000000000000000000000000000000000000000000000200000000000000000000000000000000000000000000000000000000000000009706c617965723132330000000000000000000000000000000000000000000000",
        "nonce": "0xd",
        "chainId": "0x45b"
      },
      "additionalContracts": [],
      "isFixedGasLimit": false
    }
  ],
  "receipts": [],
  "libraries": [],
  "pending": [],
  "returns": {},
  "timestamp": 1740948634,
  "chain": 1115,
  "commit": "cc6cec9"
}